{
  "contractName": "CardsConfig",
  "abi": [
    {
      "constant": true,
      "inputs": [
        {
          "internalType": "uint256",
          "name": "",
          "type": "uint256"
        }
      ],
      "name": "cards",
      "outputs": [
        {
          "internalType": "uint32",
          "name": "sqlId",
          "type": "uint32"
        }
      ],
      "payable": false,
      "stateMutability": "view",
      "type": "function"
    },
    {
      "constant": false,
      "inputs": [
        {
          "internalType": "uint32",
          "name": "_sqlId",
          "type": "uint32"
        }
      ],
      "name": "createCard",
      "outputs": [],
      "payable": false,
      "stateMutability": "nonpayable",
      "type": "function"
    },
    {
      "constant": false,
      "inputs": [
        {
          "internalType": "uint256",
          "name": "_id",
          "type": "uint256"
        },
        {
          "internalType": "uint256[][]",
          "name": "_herosGroup",
          "type": "uint256[][]"
        }
      ],
      "name": "addHeroGroup",
      "outputs": [],
      "payable": false,
      "stateMutability": "nonpayable",
      "type": "function"
    }
  ],
  "bytecode": "0x608060405234801561001057600080fd5b506105f4806100206000396000f3fe608060405234801561001057600080fd5b50600436106100415760003560e01c80638dc10768146100465780639d0f38fe14610076578063fb17a01014610092575b600080fd5b610060600480360361005b919081019061041c565b6100ae565b60405161006d91906104d1565b60405180910390f35b610090600480360361008b9190810190610445565b6100e5565b005b6100ac60048036036100a79190810190610499565b6101ef565b005b600181815481106100bb57fe5b906000526020600020016000915090508060000160009054906101000a900463ffffffff16905081565b60008090505b81518110156101c4576000818154811061010157fe5b9060005260206000209060020201600101604051806040016040528084848151811061012957fe5b602002602001015160008151811061013d57fe5b6020026020010151815260200184848151811061015657fe5b602002602001015160018151811061016a57fe5b602002602001015181525090806001815401808255809150509060018203906000526020600020906002020160009091929091909150600082015181600001556020820151816001015550505080806001019150506100eb565b5060006001600080549050039050826004600083815260200190815260200160002081905550505050565b6101f8816101fb565b50565b600160405180602001604052808363ffffffff1681525090806001815401808255809150509060018203906000526020600020016000909192909190915060008201518160000160006101000a81548163ffffffff021916908363ffffffff160217905550505050600060018080549050039050816002600083815260200190815260200160002060006101000a81548163ffffffff021916908363ffffffff160217905550816002600083815260200190815260200160002060006101000a81548163ffffffff021916908363ffffffff16021790555080600360008463ffffffff1663ffffffff168152602001908152602001600020819055505050565b600082601f83011261030c57600080fd5b813561031f61031a82610519565b6104ec565b9150818183526020840193506020810190508360005b83811015610365578135860161034b888261036f565b845260208401935060208301925050600181019050610335565b5050505092915050565b600082601f83011261038057600080fd5b813561039361038e82610541565b6104ec565b915081818352602084019350602081019050838560208402820111156103b857600080fd5b60005b838110156103e857816103ce88826103f2565b8452602084019350602083019250506001810190506103bb565b5050505092915050565b60008135905061040181610583565b92915050565b6000813590506104168161059a565b92915050565b60006020828403121561042e57600080fd5b600061043c848285016103f2565b91505092915050565b6000806040838503121561045857600080fd5b6000610466858286016103f2565b925050602083013567ffffffffffffffff81111561048357600080fd5b61048f858286016102fb565b9150509250929050565b6000602082840312156104ab57600080fd5b60006104b984828501610407565b91505092915050565b6104cb81610573565b82525050565b60006020820190506104e660008301846104c2565b92915050565b6000604051905081810181811067ffffffffffffffff8211171561050f57600080fd5b8060405250919050565b600067ffffffffffffffff82111561053057600080fd5b602082029050602081019050919050565b600067ffffffffffffffff82111561055857600080fd5b602082029050602081019050919050565b6000819050919050565b600063ffffffff82169050919050565b61058c81610569565b811461059757600080fd5b50565b6105a381610573565b81146105ae57600080fd5b5056fea365627a7a723158203c8128ddc7bcac8ec27cb35d17efb6cf73d11a4310b7970ac6caffea37d2221d6c6578706572696d656e74616cf564736f6c63430005100040",
  "source": "// SPDX-License-Identifier: MIT\r\npragma solidity >=0.4.22 <0.9.0;\r\npragma experimental ABIEncoderV2;\r\n\r\ncontract CardsConfig {\r\n    //创建卡的结构体\r\n    struct Card {\r\n        uint32 sqlId; //卡片数据库id\r\n    }\r\n    //卡牌人物组合结构\r\n    struct HeroGroup {\r\n        uint256 cardId;\r\n        uint256 buffer;\r\n    }\r\n    struct HeroGroupList {\r\n        uint256 sqlId; //组合id\r\n        HeroGroup[] heroGroups; //人物战力加成映射\r\n    }\r\n    HeroGroupList[] heroGroupLists;\r\n    Card[] public cards; //卡牌\r\n    //卡片id与数据库id的映射\r\n    mapping(uint256 => uint32) idToSqlId;\r\n    mapping(uint32 => uint256) sqlIdToId;\r\n    //卡牌组合id和数据库id\r\n    mapping(uint256 => uint256) groupIdToSqlId;\r\n\r\n    //创建卡牌\r\n    function createCard(uint32 _sqlId) public {\r\n        _createCard(_sqlId);\r\n    }\r\n\r\n    //添加人物组合\r\n    function addHeroGroup(uint256 _id, uint256[][] memory _herosGroup) public {\r\n        for (uint256 i = 0; i < _herosGroup.length; i++) {\r\n            heroGroupLists[i].heroGroups.push(\r\n                HeroGroup({\r\n                    cardId: _herosGroup[i][0],\r\n                    buffer: _herosGroup[i][1]\r\n                })\r\n            );\r\n        }\r\n\r\n        uint256 len = heroGroupLists.length - 1;\r\n        groupIdToSqlId[len] = _id;\r\n    }\r\n\r\n    //添加卡牌\r\n    function _createCard(uint32 _sqlId) internal {\r\n        cards.push(Card(_sqlId));\r\n        uint256 id = cards.length - 1;\r\n        idToSqlId[id] = _sqlId;\r\n        idToSqlId[id] = _sqlId;\r\n        sqlIdToId[_sqlId] = id;\r\n    }\r\n\r\n    //返回组合信息\r\n    //id组合id 人物id\r\n    // function retGroupList(uint256 _id)\r\n    //     public\r\n    //     view\r\n    //     returns (uint256[][] memory herosGroup)\r\n    // {\r\n    //     return heroGroupLists[_id];\r\n    // }\r\n}\r\n",
  "sourcePath": "D:\\Sol\\ntf\\contracts\\config\\CardsConfig.sol",
  "compiler": {
    "name": "solc",
    "version": "0.5.16+commit.9c3226ce.Emscripten.clang"
  },
  "schemaVersion": "3.4.1",
  "updatedAt": "2021-05-31T10:58:24.197Z",
  "devdoc": {
    "methods": {}
  },
  "userdoc": {
    "methods": {}
  }
}