{
  "contractName": "CardLevelConfig",
  "abi": [
    {
      "constant": true,
      "inputs": [
        {
          "internalType": "uint256",
          "name": "",
          "type": "uint256"
        }
      ],
      "name": "CardLevels",
      "outputs": [
        {
          "internalType": "uint32",
          "name": "sqlId",
          "type": "uint32"
        },
        {
          "internalType": "uint16",
          "name": "fighting",
          "type": "uint16"
        },
        {
          "internalType": "uint16",
          "name": "exp",
          "type": "uint16"
        },
        {
          "internalType": "uint16",
          "name": "ASH",
          "type": "uint16"
        }
      ],
      "payable": false,
      "stateMutability": "view",
      "type": "function"
    },
    {
      "constant": false,
      "inputs": [
        {
          "internalType": "uint32",
          "name": "_sqlId",
          "type": "uint32"
        },
        {
          "internalType": "uint16",
          "name": "_fighting",
          "type": "uint16"
        },
        {
          "internalType": "uint16",
          "name": "_exp",
          "type": "uint16"
        },
        {
          "internalType": "uint16",
          "name": "_ash",
          "type": "uint16"
        }
      ],
      "name": "addLevel",
      "outputs": [],
      "payable": false,
      "stateMutability": "nonpayable",
      "type": "function"
    }
  ],
  "bytecode": "0x608060405234801561001057600080fd5b50610327806100206000396000f3fe608060405234801561001057600080fd5b50600436106100365760003560e01c806364ef851b1461003b5780636cec2332146100b6575b600080fd5b6100676004803603602081101561005157600080fd5b8101908080359060200190929190505050610114565b604051808563ffffffff1663ffffffff1681526020018461ffff1661ffff1681526020018361ffff1661ffff1681526020018261ffff1661ffff16815260200194505050505060405180910390f35b610112600480360360808110156100cc57600080fd5b81019080803563ffffffff169060200190929190803561ffff169060200190929190803561ffff169060200190929190803561ffff169060200190929190505050610187565b005b6000818154811061012157fe5b906000526020600020016000915090508060000160009054906101000a900463ffffffff16908060000160049054906101000a900461ffff16908060000160069054906101000a900461ffff16908060000160089054906101000a900461ffff16905084565b61019384848484610199565b50505050565b600060405180608001604052808663ffffffff1681526020018561ffff1681526020018461ffff1681526020018361ffff1681525090806001815401808255809150509060018203906000526020600020016000909192909190915060008201518160000160006101000a81548163ffffffff021916908363ffffffff16021790555060208201518160000160046101000a81548161ffff021916908361ffff16021790555060408201518160000160066101000a81548161ffff021916908361ffff16021790555060608201518160000160086101000a81548161ffff021916908361ffff16021790555050505060006001600080549050039050846001600083815260200190815260200160002060006101000a81548163ffffffff021916908363ffffffff16021790555080600260008763ffffffff1663ffffffff16815260200190815260200160002081905550505050505056fea265627a7a7231582038ba67ca58dbf0e191bcd6315943ddffd347fadb3e8c47830759efae1b1d5d2e64736f6c63430005100032",
  "source": "// SPDX-License-Identifier: MIT\r\npragma solidity >=0.4.22 <0.9.0;\r\n\r\ncontract CardLevelConfig {\r\n    struct CardLevel {\r\n        uint32 sqlId;\r\n        uint16 fighting; //战斗力\r\n        uint16 exp; //销毁卡片可得经验\r\n        uint16 ASH; //质押的ASH\r\n    }\r\n\r\n    CardLevel[] public CardLevels;\r\n\r\n    //卡片等级id与数据库id的映射\r\n    mapping(uint256 => uint32) levelIdToSqlId;\r\n    mapping(uint32 => uint256) sqlIdTolevelId;\r\n\r\n    function _createLevel(\r\n        uint32 _sqlId,\r\n        uint16 _fighting,\r\n        uint16 _exp,\r\n        uint16 _ash\r\n    ) internal {\r\n        CardLevels.push(CardLevel(_sqlId, _fighting, _exp, _ash));\r\n        uint256 id = CardLevels.length - 1;\r\n        levelIdToSqlId[id] = _sqlId;\r\n        sqlIdTolevelId[_sqlId] = id;\r\n    }\r\n    //新建/修改\r\n    function addLevel(\r\n        uint32 _sqlId,\r\n        uint16 _fighting,\r\n        uint16 _exp,\r\n        uint16 _ash\r\n    ) public {\r\n        _createLevel( _sqlId, _fighting,  _exp, _ash);\r\n    }\r\n\r\n}\r\n",
  "sourcePath": "D:\\Sol\\ntf\\contracts\\config\\CardLevelConfig.sol",
  "compiler": {
    "name": "solc",
    "version": "0.5.16+commit.9c3226ce.Emscripten.clang"
  },
  "schemaVersion": "3.4.1",
  "updatedAt": "2021-05-31T10:58:24.195Z",
  "devdoc": {
    "methods": {}
  },
  "userdoc": {
    "methods": {}
  }
}