{
  "contractName": "CardBoxConfig",
  "abi": [
    {
      "constant": true,
      "inputs": [
        {
          "internalType": "uint256",
          "name": "",
          "type": "uint256"
        }
      ],
      "name": "CardBoxs",
      "outputs": [
        {
          "internalType": "uint8",
          "name": "level",
          "type": "uint8"
        },
        {
          "internalType": "uint32",
          "name": "exp",
          "type": "uint32"
        },
        {
          "internalType": "uint8",
          "name": "addition",
          "type": "uint8"
        }
      ],
      "payable": false,
      "stateMutability": "view",
      "type": "function"
    },
    {
      "constant": false,
      "inputs": [
        {
          "internalType": "uint8",
          "name": "_level",
          "type": "uint8"
        },
        {
          "internalType": "uint32",
          "name": "_exp",
          "type": "uint32"
        },
        {
          "internalType": "uint8",
          "name": "_addition",
          "type": "uint8"
        }
      ],
      "name": "creatBox",
      "outputs": [],
      "payable": false,
      "stateMutability": "nonpayable",
      "type": "function"
    }
  ],
  "bytecode": "0x608060405234801561001057600080fd5b50610254806100206000396000f3fe608060405234801561001057600080fd5b50600436106100365760003560e01c806322abcd001461003b5780639249c84f14610089575b600080fd5b6100876004803603606081101561005157600080fd5b81019080803560ff169060200190929190803563ffffffff169060200190929190803560ff1690602001909291905050506100f1565b005b6100b56004803603602081101561009f57600080fd5b8101908080359060200190929190505050610101565b604051808460ff1660ff1681526020018363ffffffff1663ffffffff1681526020018260ff1660ff168152602001935050505060405180910390f35b6100fc83838361015e565b505050565b6000818154811061010e57fe5b906000526020600020016000915090508060000160009054906101000a900460ff16908060000160019054906101000a900463ffffffff16908060000160059054906101000a900460ff16905083565b600060405180606001604052808560ff1681526020018463ffffffff1681526020018360ff1681525090806001815401808255809150509060018203906000526020600020016000909192909190915060008201518160000160006101000a81548160ff021916908360ff16021790555060208201518160000160016101000a81548163ffffffff021916908363ffffffff16021790555060408201518160000160056101000a81548160ff021916908360ff16021790555050505050505056fea265627a7a72315820a1defaa7c11f22a5fae3e3a6bed4dab789ac9e27b2bf55cc8e6ee3bd4cc8d50f64736f6c63430005100032",
  "source": "// SPDX-License-Identifier: MIT\r\npragma solidity >=0.4.22 <0.9.0;\r\n\r\ncontract CardBoxConfig {\r\n    struct CardBox {\r\n        uint8 level; //开槽等级\r\n        uint32 exp; //升级所需经验\r\n        uint8 addition; //加成\r\n    }\r\n\r\n    CardBox[] public CardBoxs;\r\n\r\n    function _creatBox(\r\n        uint8 _level,\r\n        uint32 _exp,\r\n        uint8 _addition\r\n    ) internal {\r\n        CardBoxs.push(CardBox(_level, _exp, _addition));\r\n    }\r\n\r\n    function creatBox(\r\n        uint8 _level,\r\n        uint32 _exp,\r\n        uint8 _addition\r\n    ) public {\r\n        _creatBox(_level, _exp, _addition);\r\n    }\r\n}\r\n",
  "sourcePath": "D:/Sol/ntf/contracts/CardBoxConfig.sol",
  "compiler": {
    "name": "solc",
    "version": "0.5.16+commit.9c3226ce.Emscripten.clang"
  },
  "schemaVersion": "3.4.1",
  "updatedAt": "2021-05-31T10:56:48.570Z",
  "devdoc": {
    "methods": {}
  },
  "userdoc": {
    "methods": {}
  }
}