{
  "contractName": "Card",
  "abi": [
    {
      "inputs": [],
      "payable": false,
      "stateMutability": "nonpayable",
      "type": "constructor"
    },
    {
      "constant": true,
      "inputs": [
        {
          "internalType": "uint256",
          "name": "",
          "type": "uint256"
        }
      ],
      "name": "CardInfos",
      "outputs": [
        {
          "internalType": "uint256",
          "name": "sqlId",
          "type": "uint256"
        },
        {
          "internalType": "uint8",
          "name": "level",
          "type": "uint8"
        },
        {
          "internalType": "uint256",
          "name": "ASH",
          "type": "uint256"
        }
      ],
      "payable": false,
      "stateMutability": "view",
      "type": "function"
    },
    {
      "constant": true,
      "inputs": [
        {
          "internalType": "uint256",
          "name": "",
          "type": "uint256"
        }
      ],
      "name": "Exps",
      "outputs": [
        {
          "internalType": "uint256",
          "name": "",
          "type": "uint256"
        }
      ],
      "payable": false,
      "stateMutability": "view",
      "type": "function"
    },
    {
      "constant": true,
      "inputs": [
        {
          "internalType": "uint256",
          "name": "",
          "type": "uint256"
        }
      ],
      "name": "Fights",
      "outputs": [
        {
          "internalType": "uint256",
          "name": "",
          "type": "uint256"
        }
      ],
      "payable": false,
      "stateMutability": "view",
      "type": "function"
    },
    {
      "constant": true,
      "inputs": [],
      "name": "cardConfig",
      "outputs": [
        {
          "internalType": "contract CardsConfig",
          "name": "",
          "type": "address"
        }
      ],
      "payable": false,
      "stateMutability": "view",
      "type": "function"
    },
    {
      "constant": true,
      "inputs": [],
      "name": "managerConfig",
      "outputs": [
        {
          "internalType": "contract ManagerConfig",
          "name": "",
          "type": "address"
        }
      ],
      "payable": false,
      "stateMutability": "view",
      "type": "function"
    },
    {
      "constant": false,
      "inputs": [
        {
          "internalType": "uint256",
          "name": "rarity",
          "type": "uint256"
        },
        {
          "internalType": "uint256",
          "name": "fight",
          "type": "uint256"
        }
      ],
      "name": "setFight",
      "outputs": [],
      "payable": false,
      "stateMutability": "nonpayable",
      "type": "function"
    },
    {
      "constant": true,
      "inputs": [
        {
          "internalType": "uint256",
          "name": "cardId",
          "type": "uint256"
        }
      ],
      "name": "getFight",
      "outputs": [
        {
          "internalType": "uint256",
          "name": "",
          "type": "uint256"
        }
      ],
      "payable": false,
      "stateMutability": "view",
      "type": "function"
    },
    {
      "constant": true,
      "inputs": [
        {
          "internalType": "uint256",
          "name": "cardId",
          "type": "uint256"
        }
      ],
      "name": "getCardAddress",
      "outputs": [
        {
          "internalType": "address",
          "name": "",
          "type": "address"
        }
      ],
      "payable": false,
      "stateMutability": "view",
      "type": "function"
    },
    {
      "constant": true,
      "inputs": [
        {
          "internalType": "uint256",
          "name": "cardId",
          "type": "uint256"
        }
      ],
      "name": "getCardInfo",
      "outputs": [
        {
          "internalType": "uint256",
          "name": "",
          "type": "uint256"
        },
        {
          "internalType": "uint256",
          "name": "",
          "type": "uint256"
        },
        {
          "internalType": "uint256",
          "name": "",
          "type": "uint256"
        }
      ],
      "payable": false,
      "stateMutability": "view",
      "type": "function"
    }
  ],
  "bytecode": "0x608060405234801561001057600080fd5b5060c860026000808152602001908152602001600020819055506101906002600060018152602001908152602001600020819055506103206002600060028152602001908152602001600020819055506106406002600060038152602001908152602001600020819055506107d060026000600481526020019081526020016000208190555060146003600080815260200190815260200160002081905550601e60036000600181526020019081526020016000208190555060286003600060028152602001908152602001600020819055506032600360006003815260200190815260200160002081905550603c60036000600481526020019081526020016000208190555061058d806101266000396000f3fe608060405234801561001057600080fd5b50600436106100935760003560e01c8063ce9153d911610066578063ce9153d9146101b6578063cef3f378146101f8578063cef7eabd14610266578063e6256934146102b0578063efeb7e021461030657610093565b806337cf533114610098578063382bfc5b146100e257806346d8090e14610124578063970129be14610166575b600080fd5b6100a061033e565b604051808273ffffffffffffffffffffffffffffffffffffffff1673ffffffffffffffffffffffffffffffffffffffff16815260200191505060405180910390f35b61010e600480360360208110156100f857600080fd5b8101908080359060200190929190505050610363565b6040518082815260200191505060405180910390f35b6101506004803603602081101561013a57600080fd5b810190808035906020019092919050505061037b565b6040518082815260200191505060405180910390f35b6101926004803603602081101561017c57600080fd5b81019080803590602001909291905050506103a0565b60405180848152602001838152602001828152602001935050505060405180910390f35b6101e2600480360360208110156101cc57600080fd5b8101908080359060200190929190505050610459565b6040518082815260200191505060405180910390f35b6102246004803603602081101561020e57600080fd5b8101908080359060200190929190505050610471565b604051808273ffffffffffffffffffffffffffffffffffffffff1673ffffffffffffffffffffffffffffffffffffffff16815260200191505060405180910390f35b61026e6104ae565b604051808273ffffffffffffffffffffffffffffffffffffffff1673ffffffffffffffffffffffffffffffffffffffff16815260200191505060405180910390f35b6102dc600480360360208110156102c657600080fd5b81019080803590602001909291905050506104d4565b604051808481526020018360ff1660ff168152602001828152602001935050505060405180910390f35b61033c6004803603604081101561031c57600080fd5b810190808035906020019092919080359060200190929190505050610518565b005b6000809054906101000a900473ffffffffffffffffffffffffffffffffffffffff1681565b60036020528060005260406000206000915090505481565b60006002600060c084901c61ffff168152602001908152602001600020549050919050565b60008060006103ad610534565b60056000868152602001908152602001600020604051806060016040529081600082015481526020016001820160009054906101000a900460ff1660ff1660ff1681526020016002820154815250509050600081604001519050600060036000846020015160ff168152602001908152602001600020549050600060026000856020015160ff168152602001908152602001600020549050828282965096509650505050509193909250565b60026020528060005260406000206000915090505481565b60006006600083815260200190815260200160002060009054906101000a900473ffffffffffffffffffffffffffffffffffffffff169050919050565b600160009054906101000a900473ffffffffffffffffffffffffffffffffffffffff1681565b600481815481106104e157fe5b90600052602060002090600302016000915090508060000154908060010160009054906101000a900460ff16908060020154905083565b8060026000848152602001908152602001600020819055505050565b604051806060016040528060008152602001600060ff16815260200160008152509056fea265627a7a72315820c790e8607d8d2de4877237cd6809b0cbf1c4ef2bdd46bf3ac024e770df38079b64736f6c63430005100032",
  "source": "// SPDX-License-Identifier: MIT\r\npragma solidity >=0.4.22 <0.9.0;\r\n\r\nimport \"./config/CardLevelConfig.sol\";\r\nimport \"./lib/Util.sol\";\r\nimport \"./config/CardsConfig.sol\";\r\nimport \"./config/ManagerConfig.sol\";\r\n\r\n//import \"./AshToken.sol\";\r\n\r\ncontract Card {\r\n    CardsConfig public cardConfig;\r\n    //AshToken public ashToken;\r\n    ManagerConfig public managerConfig;\r\n    mapping(uint256 => uint256) public Fights;\r\n    mapping(uint256 => uint256) public Exps;\r\n    struct CardInfo {\r\n        uint256 sqlId; //卡片id\r\n        uint8 level; //卡片品质\r\n        uint256 ASH; //卡片质押的ASH币\r\n    }\r\n    CardInfo[] public CardInfos;\r\n    mapping(uint256 => CardInfo) cardIdToCardInfo;\r\n\r\n    constructor() public {\r\n        Fights[0] = 200;\r\n        Fights[1] = 400;\r\n        Fights[2] = 800;\r\n        Fights[3] = 1600;\r\n        Fights[4] = 2000;\r\n\r\n        Exps[0] = 20;\r\n        Exps[1] = 30;\r\n        Exps[2] = 40;\r\n        Exps[3] = 50;\r\n        Exps[4] = 60;\r\n    }\r\n\r\n    mapping(uint256 => address) cardToAddress; //cardid和地址的映射\r\n\r\n    //添加设置战斗力\r\n    function setFight(uint256 rarity, uint256 fight) external {\r\n        Fights[rarity] = fight;\r\n    }\r\n\r\n    //获取卡牌的战斗力\r\n    function getFight(uint256 cardId) external view returns (uint256) {\r\n        return Fights[uint16(cardId >> 192)];\r\n    }\r\n\r\n    //获取所有人物组合\r\n    // function getHeroGroup(uint256 _cardTag) public view returns (uint256) {\r\n    //     cardConfig.retGroupList(_cardTag);\r\n    // }\r\n\r\n    //获取卡牌地址\r\n    function getCardAddress(uint256 cardId) public view returns (address) {\r\n        return cardToAddress[cardId];\r\n    }\r\n\r\n    //质押抽卡\r\n    function _openCard(uint256 ash) internal {\r\n        //    if(ash<100){\r\n        //    }elseif(){\r\n        //    }\r\n    }\r\n\r\n    //返回卡片信息\r\n    function getCardInfo(uint256 cardId)\r\n        public\r\n        view\r\n        returns (\r\n            uint256,\r\n            uint256,\r\n            uint256\r\n        )\r\n    {\r\n        CardInfo memory cardinfo = cardIdToCardInfo[cardId];\r\n        uint256 ash = cardinfo.ASH;\r\n        uint256 exp = Exps[cardinfo.level];\r\n        uint256 fight = Fights[cardinfo.level];\r\n\r\n        return (ash, exp, fight);\r\n    }\r\n\r\n    //释放卡片\r\n    function brunCard(uint256 cardId) internal {\r\n        require(\r\n            msg.sender == cardToAddress[cardId],\r\n            \"msg.sender must be owner\"\r\n        );\r\n\r\n        //释放卡片后返还质押的ASH代币\r\n        //ashToken.transfer(cardToAddress[cardId], cardIdToCardInfo[cardId].ASH);\r\n    }\r\n}\r\n",
  "sourcePath": "D:/Sol/ntf/contracts/Card.sol",
  "compiler": {
    "name": "solc",
    "version": "0.5.16+commit.9c3226ce.Emscripten.clang"
  },
  "schemaVersion": "3.4.1",
  "updatedAt": "2021-05-31T10:58:24.185Z",
  "devdoc": {
    "methods": {}
  },
  "userdoc": {
    "methods": {}
  }
}