{
  "contractName": "MasterChef",
  "abi": [
    {
      "inputs": [
        {
          "internalType": "contract IBEP20",
          "name": "_jy",
          "type": "address"
        },
        {
          "internalType": "address",
          "name": "_devaddr",
          "type": "address"
        },
        {
          "internalType": "uint256",
          "name": "_jyPerBlock",
          "type": "uint256"
        },
        {
          "internalType": "uint256",
          "name": "_startBlock",
          "type": "uint256"
        }
      ],
      "payable": false,
      "stateMutability": "nonpayable",
      "type": "constructor"
    },
    {
      "anonymous": false,
      "inputs": [
        {
          "indexed": true,
          "internalType": "address",
          "name": "user",
          "type": "address"
        },
        {
          "indexed": true,
          "internalType": "uint256",
          "name": "pid",
          "type": "uint256"
        },
        {
          "indexed": false,
          "internalType": "uint256",
          "name": "amount",
          "type": "uint256"
        }
      ],
      "name": "Deposit",
      "type": "event"
    },
    {
      "anonymous": false,
      "inputs": [
        {
          "indexed": true,
          "internalType": "address",
          "name": "user",
          "type": "address"
        },
        {
          "indexed": true,
          "internalType": "uint256",
          "name": "pid",
          "type": "uint256"
        },
        {
          "indexed": false,
          "internalType": "uint256",
          "name": "amount",
          "type": "uint256"
        }
      ],
      "name": "EmergencyWithdraw",
      "type": "event"
    },
    {
      "anonymous": false,
      "inputs": [
        {
          "indexed": true,
          "internalType": "address",
          "name": "user",
          "type": "address"
        },
        {
          "indexed": true,
          "internalType": "uint256",
          "name": "pid",
          "type": "uint256"
        },
        {
          "indexed": false,
          "internalType": "uint256",
          "name": "amount",
          "type": "uint256"
        }
      ],
      "name": "Withdraw",
      "type": "event"
    },
    {
      "constant": true,
      "inputs": [],
      "name": "_owner",
      "outputs": [
        {
          "internalType": "address",
          "name": "",
          "type": "address"
        }
      ],
      "payable": false,
      "stateMutability": "view",
      "type": "function"
    },
    {
      "constant": true,
      "inputs": [],
      "name": "devaddr",
      "outputs": [
        {
          "internalType": "address",
          "name": "",
          "type": "address"
        }
      ],
      "payable": false,
      "stateMutability": "view",
      "type": "function"
    },
    {
      "constant": true,
      "inputs": [],
      "name": "jy",
      "outputs": [
        {
          "internalType": "contract IBEP20",
          "name": "",
          "type": "address"
        }
      ],
      "payable": false,
      "stateMutability": "view",
      "type": "function"
    },
    {
      "constant": true,
      "inputs": [],
      "name": "jyPerBlock",
      "outputs": [
        {
          "internalType": "uint256",
          "name": "",
          "type": "uint256"
        }
      ],
      "payable": false,
      "stateMutability": "view",
      "type": "function"
    },
    {
      "constant": true,
      "inputs": [],
      "name": "owner",
      "outputs": [
        {
          "internalType": "address",
          "name": "",
          "type": "address"
        }
      ],
      "payable": false,
      "stateMutability": "view",
      "type": "function"
    },
    {
      "constant": true,
      "inputs": [
        {
          "internalType": "uint256",
          "name": "",
          "type": "uint256"
        }
      ],
      "name": "poolInfo",
      "outputs": [
        {
          "internalType": "contract IBEP20",
          "name": "lpToken",
          "type": "address"
        },
        {
          "internalType": "uint256",
          "name": "allocPoint",
          "type": "uint256"
        },
        {
          "internalType": "uint256",
          "name": "lastRewardBlock",
          "type": "uint256"
        },
        {
          "internalType": "uint256",
          "name": "accJyPerShare",
          "type": "uint256"
        }
      ],
      "payable": false,
      "stateMutability": "view",
      "type": "function"
    },
    {
      "constant": true,
      "inputs": [],
      "name": "startBlock",
      "outputs": [
        {
          "internalType": "uint256",
          "name": "",
          "type": "uint256"
        }
      ],
      "payable": false,
      "stateMutability": "view",
      "type": "function"
    },
    {
      "constant": true,
      "inputs": [],
      "name": "totalAllocPoint",
      "outputs": [
        {
          "internalType": "uint256",
          "name": "",
          "type": "uint256"
        }
      ],
      "payable": false,
      "stateMutability": "view",
      "type": "function"
    },
    {
      "constant": true,
      "inputs": [
        {
          "internalType": "uint256",
          "name": "",
          "type": "uint256"
        },
        {
          "internalType": "address",
          "name": "",
          "type": "address"
        }
      ],
      "name": "userInfo",
      "outputs": [
        {
          "internalType": "uint256",
          "name": "amount",
          "type": "uint256"
        },
        {
          "internalType": "uint256",
          "name": "rewardDebt",
          "type": "uint256"
        }
      ],
      "payable": false,
      "stateMutability": "view",
      "type": "function"
    },
    {
      "constant": false,
      "inputs": [
        {
          "internalType": "uint256",
          "name": "_allocPoint",
          "type": "uint256"
        },
        {
          "internalType": "contract IBEP20",
          "name": "_lpToken",
          "type": "address"
        },
        {
          "internalType": "bool",
          "name": "_withUpdate",
          "type": "bool"
        }
      ],
      "name": "add",
      "outputs": [],
      "payable": false,
      "stateMutability": "nonpayable",
      "type": "function"
    },
    {
      "constant": false,
      "inputs": [
        {
          "internalType": "uint256",
          "name": "_pid",
          "type": "uint256"
        },
        {
          "internalType": "uint256",
          "name": "_allocPoint",
          "type": "uint256"
        },
        {
          "internalType": "bool",
          "name": "_withUpdate",
          "type": "bool"
        }
      ],
      "name": "set",
      "outputs": [],
      "payable": false,
      "stateMutability": "nonpayable",
      "type": "function"
    },
    {
      "constant": false,
      "inputs": [],
      "name": "massUpdatePools",
      "outputs": [],
      "payable": false,
      "stateMutability": "nonpayable",
      "type": "function"
    },
    {
      "constant": false,
      "inputs": [
        {
          "internalType": "uint256",
          "name": "_pid",
          "type": "uint256"
        }
      ],
      "name": "updatePool",
      "outputs": [],
      "payable": false,
      "stateMutability": "nonpayable",
      "type": "function"
    },
    {
      "constant": false,
      "inputs": [
        {
          "internalType": "uint256",
          "name": "_pid",
          "type": "uint256"
        },
        {
          "internalType": "uint256",
          "name": "_amount",
          "type": "uint256"
        }
      ],
      "name": "deposit",
      "outputs": [],
      "payable": false,
      "stateMutability": "nonpayable",
      "type": "function"
    },
    {
      "constant": false,
      "inputs": [
        {
          "internalType": "uint256",
          "name": "_pid",
          "type": "uint256"
        },
        {
          "internalType": "uint256",
          "name": "_amount",
          "type": "uint256"
        }
      ],
      "name": "withdraw",
      "outputs": [],
      "payable": false,
      "stateMutability": "nonpayable",
      "type": "function"
    }
  ],
  "bytecode": "0x6080604052600060065534801561001557600080fd5b506040516116c03803806116c08339818101604052608081101561003857600080fd5b8101908080519060200190929190805190602001909291908051906020019092919080519060200190929190505050336000806101000a81548173ffffffffffffffffffffffffffffffffffffffff021916908373ffffffffffffffffffffffffffffffffffffffff16021790555083600160006101000a81548173ffffffffffffffffffffffffffffffffffffffff021916908373ffffffffffffffffffffffffffffffffffffffff16021790555082600260006101000a81548173ffffffffffffffffffffffffffffffffffffffff021916908373ffffffffffffffffffffffffffffffffffffffff1602179055508160038190555080600781905550505050506115768061014a6000396000f3fe608060405234801561001057600080fd5b50600436106100f55760003560e01c8063630b5ba111610097578063b2bdfa7b11610066578063b2bdfa7b146103c4578063d01891561461040e578063d49e77cd1461042c578063e2bbb15814610476576100f5565b8063630b5ba1146102c357806364482f79146102cd5780638da5cb5b1461031157806393f1a40b1461035b576100f5565b80632309314c116100d35780632309314c146101f5578063441a3e701461023f57806348cd4cb11461027757806351eb05a614610295576100f5565b80631526fe27146100fa57806317caf6f11461017d5780631eaaa0451461019b575b600080fd5b6101266004803603602081101561011057600080fd5b81019080803590602001909291905050506104ae565b604051808573ffffffffffffffffffffffffffffffffffffffff1673ffffffffffffffffffffffffffffffffffffffff16815260200184815260200183815260200182815260200194505050505060405180910390f35b61018561050b565b6040518082815260200191505060405180910390f35b6101f3600480360360608110156101b157600080fd5b8101908080359060200190929190803573ffffffffffffffffffffffffffffffffffffffff169060200190929190803515159060200190929190505050610511565b005b6101fd61067e565b604051808273ffffffffffffffffffffffffffffffffffffffff1673ffffffffffffffffffffffffffffffffffffffff16815260200191505060405180910390f35b6102756004803603604081101561025557600080fd5b8101908080359060200190929190803590602001909291905050506106a4565b005b61027f610888565b6040518082815260200191505060405180910390f35b6102c1600480360360208110156102ab57600080fd5b810190808035906020019092919050505061088e565b005b6102cb610a43565b005b61030f600480360360608110156102e357600080fd5b810190808035906020019092919080359060200190929190803515159060200190929190505050610a73565b005b610319610b4e565b604051808273ffffffffffffffffffffffffffffffffffffffff1673ffffffffffffffffffffffffffffffffffffffff16815260200191505060405180910390f35b6103a76004803603604081101561037157600080fd5b8101908080359060200190929190803573ffffffffffffffffffffffffffffffffffffffff169060200190929190505050610b77565b604051808381526020018281526020019250505060405180910390f35b6103cc610ba8565b604051808273ffffffffffffffffffffffffffffffffffffffff1673ffffffffffffffffffffffffffffffffffffffff16815260200191505060405180910390f35b610416610bcd565b6040518082815260200191505060405180910390f35b610434610bd3565b604051808273ffffffffffffffffffffffffffffffffffffffff1673ffffffffffffffffffffffffffffffffffffffff16815260200191505060405180910390f35b6104ac6004803603604081101561048c57600080fd5b810190808035906020019092919080359060200190929190505050610bf9565b005b600481815481106104bb57fe5b90600052602060002090600402016000915090508060000160009054906101000a900473ffffffffffffffffffffffffffffffffffffffff16908060010154908060020154908060030154905084565b60065481565b6000809054906101000a900473ffffffffffffffffffffffffffffffffffffffff1673ffffffffffffffffffffffffffffffffffffffff163373ffffffffffffffffffffffffffffffffffffffff161461056a57600080fd5b801561057957610578610a43565b5b6000600754431161058c5760075461058e565b435b90506105a584600654610ddd90919063ffffffff16565b600681905550600460405180608001604052808573ffffffffffffffffffffffffffffffffffffffff16815260200186815260200183815260200160008152509080600181540180825580915050906001820390600052602060002090600402016000909192909190915060008201518160000160006101000a81548173ffffffffffffffffffffffffffffffffffffffff021916908373ffffffffffffffffffffffffffffffffffffffff16021790555060208201518160010155604082015181600201556060820151816003015550505050505050565b600160009054906101000a900473ffffffffffffffffffffffffffffffffffffffff1681565b6000600483815481106106b357fe5b9060005260206000209060040201905060006005600085815260200190815260200160002060003373ffffffffffffffffffffffffffffffffffffffff1673ffffffffffffffffffffffffffffffffffffffff1681526020019081526020016000209050828160000154101561072857600080fd5b6107318461088e565b600061077e8260010154610770670de0b6b3a764000061076287600301548760000154610df990919063ffffffff16565b610e3090919063ffffffff16565b610e4990919063ffffffff16565b905061078a3382610e60565b6107a1848360000154610e4990919063ffffffff16565b82600001819055506107db64e8d4a510006107cd85600301548560000154610df990919063ffffffff16565b610e3090919063ffffffff16565b826001018190555061083233858560000160009054906101000a900473ffffffffffffffffffffffffffffffffffffffff1673ffffffffffffffffffffffffffffffffffffffff1661111b9092919063ffffffff16565b843373ffffffffffffffffffffffffffffffffffffffff167ff279e6a1f5e320cca91135676d9cb6e44ca8a08c0b88342bcdb1144f6511b568866040518082815260200191505060405180910390a35050505050565b60075481565b60006004828154811061089d57fe5b90600052602060002090600402019050806002015443116108be5750610a40565b60008160000160009054906101000a900473ffffffffffffffffffffffffffffffffffffffff1673ffffffffffffffffffffffffffffffffffffffff166370a08231306040518263ffffffff1660e01b8152600401808273ffffffffffffffffffffffffffffffffffffffff1673ffffffffffffffffffffffffffffffffffffffff16815260200191505060206040518083038186803b15801561096157600080fd5b505afa158015610975573d6000803e3d6000fd5b505050506040513d602081101561098b57600080fd5b8101908080519060200190929190505050905060008114156109b7574382600201819055505050610a40565b60006109e66006546109d88560010154600354610df990919063ffffffff16565b610e3090919063ffffffff16565b9050610a2b610a1883610a0a670de0b6b3a764000085610df990919063ffffffff16565b610e3090919063ffffffff16565b8460030154610ddd90919063ffffffff16565b83600301819055504383600201819055505050505b50565b6000600480549050905060008090505b81811015610a6f57610a648161088e565b806001019050610a53565b5050565b6000809054906101000a900473ffffffffffffffffffffffffffffffffffffffff1673ffffffffffffffffffffffffffffffffffffffff163373ffffffffffffffffffffffffffffffffffffffff1614610acc57600080fd5b8015610adb57610ada610a43565b5b610b2082610b1260048681548110610aef57fe5b906000526020600020906004020160010154600654610e4990919063ffffffff16565b610ddd90919063ffffffff16565b6006819055508160048481548110610b3457fe5b906000526020600020906004020160010181905550505050565b60008060009054906101000a900473ffffffffffffffffffffffffffffffffffffffff16905090565b6005602052816000526040600020602052806000526040600020600091509150508060000154908060010154905082565b6000809054906101000a900473ffffffffffffffffffffffffffffffffffffffff1681565b60035481565b600260009054906101000a900473ffffffffffffffffffffffffffffffffffffffff1681565b600060048381548110610c0857fe5b9060005260206000209060040201905060006005600085815260200190815260200160002060003373ffffffffffffffffffffffffffffffffffffffff1673ffffffffffffffffffffffffffffffffffffffff1681526020019081526020016000209050610c758461088e565b600081600001541115610cdd576000610ccf8260010154610cc1670de0b6b3a7640000610cb387600301548760000154610df990919063ffffffff16565b610e3090919063ffffffff16565b610e4990919063ffffffff16565b9050610cdb3382610e60565b505b610d2c30848460000160009054906101000a900473ffffffffffffffffffffffffffffffffffffffff1673ffffffffffffffffffffffffffffffffffffffff166113149092919063ffffffff16565b610d43838260000154610ddd90919063ffffffff16565b8160000181905550610d80670de0b6b3a7640000610d7284600301548460000154610df990919063ffffffff16565b610e3090919063ffffffff16565b8160010181905550833373ffffffffffffffffffffffffffffffffffffffff167f90890809c654f11d6e72a28fa60149770a0d11ec6c92319d6ceb2bb0a4ea1a15856040518082815260200191505060405180910390a350505050565b600080828401905083811015610def57fe5b8091505092915050565b600080831415610e0c5760009050610e2a565b6000828402905082848281610e1d57fe5b0414610e2557fe5b809150505b92915050565b600080828481610e3c57fe5b0490508091505092915050565b600082821115610e5557fe5b818303905092915050565b6000600160009054906101000a900473ffffffffffffffffffffffffffffffffffffffff1673ffffffffffffffffffffffffffffffffffffffff166370a08231306040518263ffffffff1660e01b8152600401808273ffffffffffffffffffffffffffffffffffffffff1673ffffffffffffffffffffffffffffffffffffffff16815260200191505060206040518083038186803b158015610f0157600080fd5b505afa158015610f15573d6000803e3d6000fd5b505050506040513d6020811015610f2b57600080fd5b810190808051906020019092919050505090508082111561103057600160009054906101000a900473ffffffffffffffffffffffffffffffffffffffff1673ffffffffffffffffffffffffffffffffffffffff1663a9059cbb84836040518363ffffffff1660e01b8152600401808373ffffffffffffffffffffffffffffffffffffffff1673ffffffffffffffffffffffffffffffffffffffff16815260200182815260200192505050602060405180830381600087803b158015610fef57600080fd5b505af1158015611003573d6000803e3d6000fd5b505050506040513d602081101561101957600080fd5b810190808051906020019092919050505050611116565b600160009054906101000a900473ffffffffffffffffffffffffffffffffffffffff1673ffffffffffffffffffffffffffffffffffffffff1663a9059cbb84846040518363ffffffff1660e01b8152600401808373ffffffffffffffffffffffffffffffffffffffff1673ffffffffffffffffffffffffffffffffffffffff16815260200182815260200192505050602060405180830381600087803b1580156110d957600080fd5b505af11580156110ed573d6000803e3d6000fd5b505050506040513d602081101561110357600080fd5b8101908080519060200190929190505050505b505050565b600060608473ffffffffffffffffffffffffffffffffffffffff1663a9059cbb8585604051602401808373ffffffffffffffffffffffffffffffffffffffff1673ffffffffffffffffffffffffffffffffffffffff168152602001828152602001925050506040516020818303038152906040529060e01b6020820180517bffffffffffffffffffffffffffffffffffffffffffffffffffffffff83818316178352505050506040518082805190602001908083835b602083106111f457805182526020820191506020810190506020830392506111d1565b6001836020036101000a0380198251168184511680821785525050505050509050019150506000604051808303816000865af19150503d8060008114611256576040519150601f19603f3d011682016040523d82523d6000602084013e61125b565b606091505b509150915081801561129b575060008151148061129a575080806020019051602081101561128857600080fd5b81019080805190602001909291905050505b5b61130d576040517f08c379a000000000000000000000000000000000000000000000000000000000815260040180806020018281038252601b8152602001807f536166654942455032303a205472616e73666572206661696c6564000000000081525060200191505060405180910390fd5b5050505050565b600060608473ffffffffffffffffffffffffffffffffffffffff166323b872dd853086604051602401808473ffffffffffffffffffffffffffffffffffffffff1673ffffffffffffffffffffffffffffffffffffffff1681526020018373ffffffffffffffffffffffffffffffffffffffff1673ffffffffffffffffffffffffffffffffffffffff16815260200182815260200193505050506040516020818303038152906040529060e01b6020820180517bffffffffffffffffffffffffffffffffffffffffffffffffffffffff83818316178352505050506040518082805190602001908083835b6020831061142157805182526020820191506020810190506020830392506113fe565b6001836020036101000a0380198251168184511680821785525050505050509050019150506000604051808303816000865af19150503d8060008114611483576040519150601f19603f3d011682016040523d82523d6000602084013e611488565b606091505b50915091508180156114c857506000815114806114c757508080602001905160208110156114b557600080fd5b81019080805190602001909291905050505b5b61153a576040517f08c379a000000000000000000000000000000000000000000000000000000000815260040180806020018281038252601f8152602001807f536166654942455032303a205472616e7366657246726f6d206661696c65640081525060200191505060405180910390fd5b505050505056fea265627a7a723158205f3346e5467c4530a7f1a0e118f0e450945f8fbb5a78136383c0329f483a629a64736f6c63430005100032",
  "source": "// SPDX-License-Identifier: MIT\r\npragma solidity >=0.4.22 <0.9.0;\r\n\r\nimport \"./JYToken.sol\";\r\nimport \"./lib/Ownable.sol\";\r\nimport \"./lib/Safemath.sol\";\r\nimport \"./lib/SafeIBEP20.sol\";\r\n\r\ncontract MasterChef is Ownable {\r\n    using SafeMath for uint256;\r\n    using SafeIBEP20 for IBEP20;\r\n    struct UserInfo {\r\n        uint256 amount; //质押的代币数量\r\n        uint256 rewardDebt; //已经获取的奖励数\r\n    }\r\n\r\n    struct PoolInfo {\r\n        IBEP20 lpToken; // lpToken代币地址\r\n        uint256 allocPoint; // 质押池的分配比例\r\n        uint256 lastRewardBlock; // 上一次分配奖励的区块数\r\n        uint256 accJyPerShare; // 起始点位\r\n    }\r\n    //jy代币\r\n    IBEP20 public jy;\r\n    //管理员地址\r\n    address public devaddr;\r\n    // 每个区块挖出来的jy的数量.\r\n    uint256 public jyPerBlock;\r\n    //矿池信息\r\n    PoolInfo[] public poolInfo;\r\n    mapping(uint256 => mapping(address => UserInfo)) public userInfo;\r\n    //是总共分配的点数\r\n    uint256 public totalAllocPoint = 0;\r\n    //开始区块\r\n    uint256 public startBlock;\r\n    event Deposit(address indexed user, uint256 indexed pid, uint256 amount);\r\n    event Withdraw(address indexed user, uint256 indexed pid, uint256 amount);\r\n    event EmergencyWithdraw(\r\n        address indexed user,\r\n        uint256 indexed pid,\r\n        uint256 amount\r\n    );\r\n\r\n    constructor(\r\n        IBEP20 _jy,\r\n        address _devaddr,\r\n        uint256 _jyPerBlock,\r\n        uint256 _startBlock\r\n    ) public {\r\n        jy = _jy;\r\n        devaddr = _devaddr;\r\n        jyPerBlock = _jyPerBlock;\r\n        startBlock = _startBlock;\r\n    }\r\n\r\n    //添加质押池\r\n    function add(\r\n        uint256 _allocPoint,\r\n        IBEP20 _lpToken,\r\n        bool _withUpdate\r\n    ) public onlyOwner {\r\n        if (_withUpdate) {\r\n            massUpdatePools();\r\n        }\r\n        uint256 lastRewardBlock =\r\n            block.number > startBlock ? block.number : startBlock;\r\n        totalAllocPoint = totalAllocPoint.add(_allocPoint);\r\n        poolInfo.push(\r\n            PoolInfo({\r\n                lpToken: _lpToken,\r\n                allocPoint: _allocPoint,\r\n                lastRewardBlock: lastRewardBlock,\r\n                accJyPerShare: 0\r\n            })\r\n        );\r\n    }\r\n\r\n    //更新质押池\r\n    function set(\r\n        uint256 _pid,\r\n        uint256 _allocPoint,\r\n        bool _withUpdate\r\n    ) public onlyOwner {\r\n        if (_withUpdate) {\r\n            massUpdatePools();\r\n        }\r\n        totalAllocPoint = totalAllocPoint.sub(poolInfo[_pid].allocPoint).add(\r\n            _allocPoint\r\n        );\r\n        poolInfo[_pid].allocPoint = _allocPoint;\r\n    }\r\n\r\n    //更新矿池的奖励\r\n    function massUpdatePools() public {\r\n        uint256 length = poolInfo.length;\r\n        for (uint256 pid = 0; pid < length; ++pid) {\r\n            updatePool(pid);\r\n        }\r\n    }\r\n\r\n    //更新质押池收益\r\n    function updatePool(uint256 _pid) public {\r\n        PoolInfo storage pool = poolInfo[_pid];\r\n        if (block.number <= pool.lastRewardBlock) {\r\n            return;\r\n        }\r\n        uint256 lpSupply = pool.lpToken.balanceOf(address(this));\r\n        if (lpSupply == 0) {\r\n            pool.lastRewardBlock = block.number;\r\n            return;\r\n        }\r\n        uint256 jyReward = jyPerBlock.mul(pool.allocPoint).div(totalAllocPoint);\r\n\r\n        //增加用户收益数据\r\n\r\n        pool.accJyPerShare = pool.accJyPerShare.add(\r\n            jyReward.mul(1e18).div(lpSupply)\r\n        );\r\n        pool.lastRewardBlock = block.number;\r\n    }\r\n\r\n    //用户质押代币进行挖矿\r\n    function deposit(uint256 _pid, uint256 _amount) public {\r\n        PoolInfo storage pool = poolInfo[_pid];\r\n        UserInfo storage user = userInfo[_pid][msg.sender];\r\n        updatePool(_pid);\r\n        if (user.amount > 0) {\r\n            uint256 pending =\r\n                user.amount.mul(pool.accJyPerShare).div(1e18).sub(\r\n                    user.rewardDebt\r\n                );\r\n            safeJyTransfer(msg.sender, pending);\r\n        }\r\n        //用户质押代币转账\r\n        pool.lpToken.safeTransferFrom(address(this), _amount);\r\n        //重新计算用户质押的代币总数\r\n        user.amount = user.amount.add(_amount);\r\n        //\r\n        user.rewardDebt = user.amount.mul(pool.accJyPerShare).div(1e18);\r\n        emit Deposit(msg.sender, _pid, _amount);\r\n    }\r\n\r\n    //解除质押\r\n    function withdraw(uint256 _pid, uint256 _amount) public {\r\n        PoolInfo storage pool = poolInfo[_pid];\r\n        UserInfo storage user = userInfo[_pid][msg.sender];\r\n        require(user.amount >= _amount);\r\n        updatePool(_pid);\r\n        uint256 pending =\r\n            user.amount.mul(pool.accJyPerShare).div(1e18).sub(user.rewardDebt);\r\n        safeJyTransfer(msg.sender, pending);\r\n        user.amount = user.amount.sub(_amount);\r\n        user.rewardDebt = user.amount.mul(pool.accJyPerShare).div(1e12);\r\n        //返还用户质押的代币\r\n        pool.lpToken.safeTransfer(address(msg.sender), _amount);\r\n        emit Withdraw(msg.sender, _pid, _amount);\r\n    }\r\n\r\n    //挖矿奖励提取\r\n    function safeJyTransfer(address _to, uint256 _amount) internal {\r\n        uint256 jyBal = jy.balanceOf(address(this));\r\n        if (_amount > jyBal) {\r\n            jy.transfer(_to, jyBal);\r\n        } else {\r\n            jy.transfer(_to, _amount);\r\n        }\r\n    }\r\n}\r\n",
  "sourcePath": "D:/Sol/ntf/contracts/MasterChef.sol",
  "compiler": {
    "name": "solc",
    "version": "0.5.16+commit.9c3226ce.Emscripten.clang"
  },
  "schemaVersion": "3.4.1",
  "updatedAt": "2021-05-31T10:56:48.579Z",
  "devdoc": {
    "methods": {}
  },
  "userdoc": {
    "methods": {}
  }
}