{
  "contractName": "PageConfig",
  "abi": [
    {
      "constant": true,
      "inputs": [
        {
          "internalType": "uint256",
          "name": "",
          "type": "uint256"
        }
      ],
      "name": "packages",
      "outputs": [
        {
          "internalType": "uint32",
          "name": "sqlId",
          "type": "uint32"
        }
      ],
      "payable": false,
      "stateMutability": "view",
      "type": "function"
    },
    {
      "constant": false,
      "inputs": [
        {
          "internalType": "uint32",
          "name": "_sqlId",
          "type": "uint32"
        }
      ],
      "name": "createCard",
      "outputs": [],
      "payable": false,
      "stateMutability": "nonpayable",
      "type": "function"
    }
  ],
  "bytecode": "0x608060405234801561001057600080fd5b50610204806100206000396000f3fe608060405234801561001057600080fd5b50600436106100365760003560e01c8063c216212a1461003b578063fb17a01014610089575b600080fd5b6100676004803603602081101561005157600080fd5b81019080803590602001909291905050506100bd565b604051808263ffffffff1663ffffffff16815260200191505060405180910390f35b6100bb6004803603602081101561009f57600080fd5b81019080803563ffffffff1690602001909291905050506100f4565b005b600081815481106100ca57fe5b906000526020600020016000915090508060000160009054906101000a900463ffffffff16905081565b6100fd81610100565b50565b600060405180602001604052808363ffffffff1681525090806001815401808255809150509060018203906000526020600020016000909192909190915060008201518160000160006101000a81548163ffffffff021916908363ffffffff16021790555050505060006001600080549050039050816001600083815260200190815260200160002060006101000a81548163ffffffff021916908363ffffffff16021790555080600260008463ffffffff1663ffffffff16815260200190815260200160002081905550505056fea265627a7a723158207e15901d4c0b5618ee4d6627eebdc294ba95389390d811b6b0ab1cfb844b014364736f6c63430005100032",
  "source": "// SPDX-License-Identifier: MIT\r\npragma solidity >=0.4.22 <0.9.0;\r\n//卡包\r\ncontract PageConfig {\r\n    //创建卡包的结构体\r\n    struct Package {\r\n        uint32 sqlId; //卡包数据库id\r\n    }\r\n\r\n    Package[] public packages;\r\n\r\n    //卡包id与数据库id的映射\r\n    mapping(uint256 => uint32) pageIdToSqlId;\r\n    mapping(uint32 => uint256) sqlIdToPageId;\r\n\r\n    //创建卡包\r\n    function createCard(uint32 _sqlId) public {\r\n        _createCard(_sqlId);\r\n    }\r\n   \r\n    function _createCard(uint32 _sqlId) internal {\r\n        packages.push(Package(_sqlId));\r\n        uint256 id = packages.length - 1;\r\n        pageIdToSqlId[id] = _sqlId;\r\n        sqlIdToPageId[_sqlId] = id;\r\n    }\r\n    \r\n}\r\n\r\n\r\n\r\n\r\n\r\n\r\n",
  "sourcePath": "D:/Sol/ntf/contracts/config/CardPageConfig.sol",
  "compiler": {
    "name": "solc",
    "version": "0.5.16+commit.9c3226ce.Emscripten.clang"
  },
  "schemaVersion": "3.4.1",
  "updatedAt": "2021-05-31T10:56:48.597Z",
  "devdoc": {
    "methods": {}
  },
  "userdoc": {
    "methods": {}
  }
}