{
  "contractName": "SafeIBEP20",
  "abi": [
    {
      "constant": true,
      "inputs": [
        {
          "internalType": "contract IBEP20",
          "name": "token",
          "type": "IBEP20"
        }
      ],
      "name": "safeDecimals",
      "outputs": [
        {
          "internalType": "uint8",
          "name": "",
          "type": "uint8"
        }
      ],
      "payable": false,
      "stateMutability": "view",
      "type": "function"
    }
  ],
  "bytecode": "0x61021b610026600b82828239805160001a60731461001957fe5b30600052607381538281f3fe73000000000000000000000000000000000000000030146080604052600436106100355760003560e01c8063b5f9d7d71461003a575b600080fd5b61007c6004803603602081101561005057600080fd5b81019080803573ffffffffffffffffffffffffffffffffffffffff169060200190929190505050610098565b604051808260ff1660ff16815260200191505060405180910390f35b60008060608373ffffffffffffffffffffffffffffffffffffffff1663313ce5676040516024016040516020818303038152906040529060e01b6020820180517bffffffffffffffffffffffffffffffffffffffffffffffffffffffff83818316178352505050506040518082805190602001908083835b602083106101335780518252602082019150602081019050602083039250610110565b6001836020036101000a038019825116818451168082178552505050505050905001915050600060405180830381855afa9150503d8060008114610193576040519150601f19603f3d011682016040523d82523d6000602084013e610198565b606091505b50915091508180156101ab575060208151145b6101b65760126101dd565b8080602001905160208110156101cb57600080fd5b81019080805190602001909291905050505b9250505091905056fea265627a7a723158203f7602d35aeff7025e8549ff27a6113a5dd001dee148d56682090e8ae270b71564736f6c63430005100032",
  "source": "// SPDX-License-Identifier: MIT\r\npragma solidity >=0.4.22 <0.9.0;\r\nimport \"../interface/IBEP20.sol\";\r\n\r\nlibrary SafeIBEP20 {\r\n    function safeSymbol(IBEP20 token) internal view returns (string memory) {\r\n        (bool success, bytes memory data) =\r\n            address(token).staticcall(abi.encodeWithSelector(0x95d89b41));\r\n        return success && data.length > 0 ? abi.decode(data, (string)) : \"???\";\r\n    }\r\n\r\n    function safeName(IBEP20 token) internal view returns (string memory) {\r\n        (bool success, bytes memory data) =\r\n            address(token).staticcall(abi.encodeWithSelector(0x06fdde03));\r\n        return success && data.length > 0 ? abi.decode(data, (string)) : \"???\";\r\n    }\r\n\r\n    function safeDecimals(IBEP20 token) public view returns (uint8) {\r\n        (bool success, bytes memory data) =\r\n            address(token).staticcall(abi.encodeWithSelector(0x313ce567));\r\n        return success && data.length == 32 ? abi.decode(data, (uint8)) : 18;\r\n    }\r\n\r\n    function safeTransfer(\r\n        IBEP20 token,\r\n        address to,\r\n        uint256 amount\r\n    ) internal {\r\n        (bool success, bytes memory data) =\r\n            address(token).call(abi.encodeWithSelector(0xa9059cbb, to, amount));\r\n        require(\r\n            success && (data.length == 0 || abi.decode(data, (bool))),\r\n            \"SafeIBEP20: Transfer failed\"\r\n        );\r\n    }\r\n\r\n    function safeTransferFrom(\r\n        IBEP20 token,\r\n        address from,\r\n        uint256 amount\r\n    ) internal {\r\n        (bool success, bytes memory data) =\r\n            address(token).call(\r\n                abi.encodeWithSelector(0x23b872dd, from, address(this), amount)\r\n            );\r\n        require(\r\n            success && (data.length == 0 || abi.decode(data, (bool))),\r\n            \"SafeIBEP20: TransferFrom failed\"\r\n        );\r\n    }\r\n}\r\n",
  "sourcePath": "D:/Sol/ntf/contracts/lib/SafeIBEP20.sol",
  "compiler": {
    "name": "solc",
    "version": "0.5.16+commit.9c3226ce.Emscripten.clang"
  },
  "schemaVersion": "3.4.1",
  "updatedAt": "2021-05-31T10:58:24.203Z",
  "devdoc": {
    "methods": {}
  },
  "userdoc": {
    "methods": {}
  }
}