{
  "contractName": "Slot",
  "abi": [
    {
      "inputs": [],
      "payable": false,
      "stateMutability": "nonpayable",
      "type": "constructor"
    },
    {
      "anonymous": false,
      "inputs": [],
      "name": "Upgrade",
      "type": "event"
    },
    {
      "constant": true,
      "inputs": [],
      "name": "card",
      "outputs": [
        {
          "internalType": "contract Card",
          "name": "",
          "type": "address"
        }
      ],
      "payable": false,
      "stateMutability": "view",
      "type": "function"
    },
    {
      "constant": true,
      "inputs": [
        {
          "internalType": "uint256",
          "name": "",
          "type": "uint256"
        }
      ],
      "name": "levelConfigs",
      "outputs": [
        {
          "internalType": "uint256",
          "name": "exp",
          "type": "uint256"
        },
        {
          "internalType": "uint256",
          "name": "buffer",
          "type": "uint256"
        }
      ],
      "payable": false,
      "stateMutability": "view",
      "type": "function"
    },
    {
      "constant": true,
      "inputs": [
        {
          "internalType": "address",
          "name": "",
          "type": "address"
        }
      ],
      "name": "ownerUserSlotInfos",
      "outputs": [
        {
          "internalType": "uint256",
          "name": "count",
          "type": "uint256"
        },
        {
          "internalType": "uint256",
          "name": "fight",
          "type": "uint256"
        }
      ],
      "payable": false,
      "stateMutability": "view",
      "type": "function"
    },
    {
      "constant": false,
      "inputs": [
        {
          "internalType": "uint256",
          "name": "_cardTag",
          "type": "uint256"
        },
        {
          "internalType": "uint256",
          "name": "_cardId",
          "type": "uint256"
        }
      ],
      "name": "addCard",
      "outputs": [],
      "payable": false,
      "stateMutability": "nonpayable",
      "type": "function"
    },
    {
      "constant": false,
      "inputs": [
        {
          "internalType": "uint256",
          "name": "_cardTag",
          "type": "uint256"
        },
        {
          "internalType": "uint256",
          "name": "_cardId",
          "type": "uint256"
        },
        {
          "internalType": "uint8",
          "name": "_index",
          "type": "uint8"
        }
      ],
      "name": "equipKungfu",
      "outputs": [],
      "payable": false,
      "stateMutability": "nonpayable",
      "type": "function"
    },
    {
      "constant": false,
      "inputs": [
        {
          "internalType": "uint256",
          "name": "_cardTag",
          "type": "uint256"
        },
        {
          "internalType": "uint256",
          "name": "_exp",
          "type": "uint256"
        }
      ],
      "name": "upgrade",
      "outputs": [],
      "payable": false,
      "stateMutability": "nonpayable",
      "type": "function"
    },
    {
      "constant": true,
      "inputs": [],
      "name": "getUserSlotInfo",
      "outputs": [
        {
          "components": [
            {
              "internalType": "uint256",
              "name": "level",
              "type": "uint256"
            },
            {
              "internalType": "uint256",
              "name": "exp",
              "type": "uint256"
            },
            {
              "internalType": "uint256",
              "name": "slotFight",
              "type": "uint256"
            },
            {
              "internalType": "uint256",
              "name": "cardId",
              "type": "uint256"
            },
            {
              "internalType": "uint256",
              "name": "fight",
              "type": "uint256"
            },
            {
              "internalType": "uint256",
              "name": "buffer",
              "type": "uint256"
            },
            {
              "components": [
                {
                  "internalType": "uint256",
                  "name": "cardId",
                  "type": "uint256"
                },
                {
                  "internalType": "uint256",
                  "name": "fight",
                  "type": "uint256"
                }
              ],
              "internalType": "struct Slot.Kungfu[]",
              "name": "kungfus",
              "type": "tuple[]"
            },
            {
              "internalType": "uint256",
              "name": "weaponId",
              "type": "uint256"
            },
            {
              "internalType": "uint256",
              "name": "weaponFight",
              "type": "uint256"
            },
            {
              "internalType": "bool",
              "name": "active",
              "type": "bool"
            }
          ],
          "internalType": "struct Slot.SlotInfo[]",
          "name": "",
          "type": "tuple[]"
        },
        {
          "internalType": "uint256",
          "name": "fight",
          "type": "uint256"
        }
      ],
      "payable": false,
      "stateMutability": "view",
      "type": "function"
    },
    {
      "constant": true,
      "inputs": [
        {
          "internalType": "uint256",
          "name": "cardTag",
          "type": "uint256"
        }
      ],
      "name": "getSoltInfo",
      "outputs": [
        {
          "components": [
            {
              "internalType": "uint256",
              "name": "level",
              "type": "uint256"
            },
            {
              "internalType": "uint256",
              "name": "exp",
              "type": "uint256"
            },
            {
              "internalType": "uint256",
              "name": "slotFight",
              "type": "uint256"
            },
            {
              "internalType": "uint256",
              "name": "cardId",
              "type": "uint256"
            },
            {
              "internalType": "uint256",
              "name": "fight",
              "type": "uint256"
            },
            {
              "internalType": "uint256",
              "name": "buffer",
              "type": "uint256"
            },
            {
              "components": [
                {
                  "internalType": "uint256",
                  "name": "cardId",
                  "type": "uint256"
                },
                {
                  "internalType": "uint256",
                  "name": "fight",
                  "type": "uint256"
                }
              ],
              "internalType": "struct Slot.Kungfu[]",
              "name": "kungfus",
              "type": "tuple[]"
            },
            {
              "internalType": "uint256",
              "name": "weaponId",
              "type": "uint256"
            },
            {
              "internalType": "uint256",
              "name": "weaponFight",
              "type": "uint256"
            },
            {
              "internalType": "bool",
              "name": "active",
              "type": "bool"
            }
          ],
          "internalType": "struct Slot.SlotInfo",
          "name": "",
          "type": "tuple"
        }
      ],
      "payable": false,
      "stateMutability": "view",
      "type": "function"
    }
  ],
  "bytecode": "0x608060405233600160006101000a81548173ffffffffffffffffffffffffffffffffffffffff021916908373ffffffffffffffffffffffffffffffffffffffff16021790555034801561005157600080fd5b50600360405180604001604052806000815260200160008152509080600181540180825580915050906001820390600052602060002090600202016000909192909190915060008201518160000155602082015181600101555050506003604051806040016040528060648152602001600a8152509080600181540180825580915050906001820390600052602060002090600202016000909192909190915060008201518160000155602082015181600101555050506003604051806040016040528061012c81526020016014815250908060018154018082558091505090600182039060005260206000209060020201600090919290919091506000820151816000015560208201518160010155505050600360405180604001604052806101f48152602001601e815250908060018154018082558091505090600182039060005260206000209060020201600090919290919091506000820151816000015560208201518160010155505050600360405180604001604052806102bc815260200160288152509080600181540180825580915050906001820390600052602060002090600202016000909192909190915060008201518160000155602082015181600101555050506003604051806040016040528061038481526020016032815250908060018154018082558091505090600182039060005260206000209060020201600090919290919091506000820151816000015560208201518160010155505050611289806102876000396000f3fe608060405234801561001057600080fd5b50600436106100885760003560e01c80639ec8f8aa1161005b5780639ec8f8aa14610127578063a9625f3314610145578063c15bdf4514610164578063ea4a294f1461019457610088565b806321f483d31461008d578063451450ec146100be5780636b75cfc5146100da578063810f64681461010b575b600080fd5b6100a760048036036100a29190810190610c6a565b6101b0565b6040516100b59291906110ed565b60405180910390f35b6100d860048036036100d39190810190610cbc565b6101e1565b005b6100f460048036036100ef9190810190610c41565b610212565b6040516101029291906110ed565b60405180910390f35b61012560048036036101209190810190610cf8565b610236565b005b61012f610269565b60405161013c9190611095565b60405180910390f35b61014d61028e565b60405161015b929190611065565b60405180910390f35b61017e60048036036101799190810190610c6a565b610440565b60405161018b91906110b0565b60405180910390f35b6101ae60048036036101a99190810190610cbc565b6105b6565b005b600381815481106101bd57fe5b90600052602060002090600202016000915090508060000154908060010154905082565b61020e600160009054906101000a900473ffffffffffffffffffffffffffffffffffffffff1683836105e7565b5050565b60026020528060005260406000206000915090508060010154908060020154905082565b610264600160009054906101000a900473ffffffffffffffffffffffffffffffffffffffff168484846106f7565b505050565b6000809054906101000a900473ffffffffffffffffffffffffffffffffffffffff1681565b606060008060026000600160009054906101000a900473ffffffffffffffffffffffffffffffffffffffff1673ffffffffffffffffffffffffffffffffffffffff1673ffffffffffffffffffffffffffffffffffffffff168152602001908152602001600020905080600001816002015481805480602002602001604051908101604052809291908181526020016000905b8282101561043157838290600052602060002090600a02016040518061014001604052908160008201548152602001600182015481526020016002820154815260200160038201548152602001600482015481526020016005820154815260200160068201805480602002602001604051908101604052809291908181526020016000905b828210156103eb578382906000526020600020906002020160405180604001604052908160008201548152602001600182015481525050815260200190600101906103a5565b50505050815260200160078201548152602001600882015481526020016009820160009054906101000a900460ff16151515158152505081526020019060010190610320565b50505050915092509250509091565b610448610b98565b60026000600160009054906101000a900473ffffffffffffffffffffffffffffffffffffffff1673ffffffffffffffffffffffffffffffffffffffff1673ffffffffffffffffffffffffffffffffffffffff16815260200190815260200160002060000182815481106104b757fe5b90600052602060002090600a02016040518061014001604052908160008201548152602001600182015481526020016002820154815260200160038201548152602001600482015481526020016005820154815260200160068201805480602002602001604051908101604052809291908181526020016000905b8282101561057857838290600052602060002090600202016040518060400160405290816000820154815260200160018201548152505081526020019060010190610532565b50505050815260200160078201548152602001600882015481526020016009820160009054906101000a900460ff1615151515815250509050919050565b6105e3600160009054906101000a900473ffffffffffffffffffffffffffffffffffffffff168383610855565b5050565b6000600260008573ffffffffffffffffffffffffffffffffffffffff1673ffffffffffffffffffffffffffffffffffffffff16815260200190815260200160002090506000816000019050600081858154811061064057fe5b90600052602060002090600a02019050838160010160008282540192505081905550600080905060008090505b6003805490508110156106d75782600101546003828154811061068c57fe5b90600052602060002090600202016000015411156106a9576106d7565b600381815481106106b657fe5b9060005260206000209060020201600101549150808060010191505061066d565b5081600501548111156106ee578082600501819055505b50505050505050565b6000600260008673ffffffffffffffffffffffffffffffffffffffff1673ffffffffffffffffffffffffffffffffffffffff16815260200190815260200160002090506000816000019050600081868154811061075057fe5b90600052602060002090600a0201905060008160060190506000818660ff168154811061077957fe5b9060005260206000209060020201905060008060009054906101000a900473ffffffffffffffffffffffffffffffffffffffff1673ffffffffffffffffffffffffffffffffffffffff166346d8090e896040518263ffffffff1660e01b81526004016107e591906110d2565b60206040518083038186803b1580156107fd57600080fd5b505afa158015610811573d6000803e3d6000fd5b505050506040513d601f19601f820116820180604052506108359190810190610c93565b905087826000018190555080826001018190555050505050505050505050565b6000600260008573ffffffffffffffffffffffffffffffffffffffff1673ffffffffffffffffffffffffffffffffffffffff1681526020019081526020016000209050600081600001905060008185815481106108ae57fe5b90600052602060002090600a0201905060008060009054906101000a900473ffffffffffffffffffffffffffffffffffffffff1673ffffffffffffffffffffffffffffffffffffffff166346d8090e866040518263ffffffff1660e01b815260040161091a91906110d2565b60206040518083038186803b15801561093257600080fd5b505afa158015610946573d6000803e3d6000fd5b505050506040513d601f19601f8201168201806040525061096a9190810190610c93565b90506000826003015414156109c15784826003018190555080826004018190555060018260090160006101000a81548160ff02191690831515021790555083600101600081548092919060010191905055506109d4565b8482600301819055508082600401819055505b6109dd876109e6565b50505050505050565b6000600260008373ffffffffffffffffffffffffffffffffffffffff1673ffffffffffffffffffffffffffffffffffffffff16815260200190815260200160002090506000816000019050600080905060008090505b8280549050811015610b885760011515838281548110610a5857fe5b90600052602060002090600a020160090160009054906101000a900460ff1615151415610b7b57600080905060008090505b848381548110610a9657fe5b90600052602060002090600a020160060180549050811015610afd57848381548110610abe57fe5b90600052602060002090600a02016006018181548110610ada57fe5b906000526020600020906002020160010154820191508080600101915050610a8a565b50600081858481548110610b0d57fe5b90600052602060002090600a020160080154868581548110610b2b57fe5b90600052602060002090600a020160040154010190506000858481548110610b4f57fe5b90600052602060002090600a0201600501546064019050606481830281610b7257fe5b04850194505050505b8080600101915050610a3c565b5080836002018190555050505050565b6040518061014001604052806000815260200160008152602001600081526020016000815260200160008152602001600081526020016060815260200160008152602001600081526020016000151581525090565b600081359050610bfc81611201565b92915050565b600081359050610c1181611218565b92915050565b600081519050610c2681611218565b92915050565b600081359050610c3b8161122f565b92915050565b600060208284031215610c5357600080fd5b6000610c6184828501610bed565b91505092915050565b600060208284031215610c7c57600080fd5b6000610c8a84828501610c02565b91505092915050565b600060208284031215610ca557600080fd5b6000610cb384828501610c17565b91505092915050565b60008060408385031215610ccf57600080fd5b6000610cdd85828601610c02565b9250506020610cee85828601610c02565b9150509250929050565b600080600060608486031215610d0d57600080fd5b6000610d1b86828701610c02565b9350506020610d2c86828701610c02565b9250506040610d3d86828701610c2c565b9150509250925092565b6000610d538383610e64565b60408301905092915050565b6000610d6b8383610f6d565b905092915050565b6000610d7e82611136565b610d888185611166565b9350610d9383611116565b8060005b83811015610dc4578151610dab8882610d47565b9750610db68361114c565b925050600181019050610d97565b5085935050505092915050565b6000610ddc82611141565b610de68185611177565b935083602082028501610df885611126565b8060005b85811015610e345784840389528151610e158582610d5f565b9450610e2083611159565b925060208a01995050600181019050610dfc565b50829750879550505050505092915050565b610e4f8161119a565b82525050565b610e5e816111dd565b82525050565b604082016000820151610e7a6000850182611047565b506020820151610e8d6020850182611047565b50505050565b600061014083016000830151610eac6000860182611047565b506020830151610ebf6020860182611047565b506040830151610ed26040860182611047565b506060830151610ee56060860182611047565b506080830151610ef86080860182611047565b5060a0830151610f0b60a0860182611047565b5060c083015184820360c0860152610f238282610d73565b91505060e0830151610f3860e0860182611047565b50610100830151610f4d610100860182611047565b50610120830151610f62610120860182610e46565b508091505092915050565b600061014083016000830151610f866000860182611047565b506020830151610f996020860182611047565b506040830151610fac6040860182611047565b506060830151610fbf6060860182611047565b506080830151610fd26080860182611047565b5060a0830151610fe560a0860182611047565b5060c083015184820360c0860152610ffd8282610d73565b91505060e083015161101260e0860182611047565b50610100830151611027610100860182611047565b5061012083015161103c610120860182610e46565b508091505092915050565b611050816111c6565b82525050565b61105f816111c6565b82525050565b6000604082019050818103600083015261107f8185610dd1565b905061108e6020830184611056565b9392505050565b60006020820190506110aa6000830184610e55565b92915050565b600060208201905081810360008301526110ca8184610e93565b905092915050565b60006020820190506110e76000830184611056565b92915050565b60006040820190506111026000830185611056565b61110f6020830184611056565b9392505050565b6000819050602082019050919050565b6000819050602082019050919050565b600081519050919050565b600081519050919050565b6000602082019050919050565b6000602082019050919050565b600082825260208201905092915050565b600082825260208201905092915050565b6000611193826111a6565b9050919050565b60008115159050919050565b600073ffffffffffffffffffffffffffffffffffffffff82169050919050565b6000819050919050565b600060ff82169050919050565b60006111e8826111ef565b9050919050565b60006111fa826111a6565b9050919050565b61120a81611188565b811461121557600080fd5b50565b611221816111c6565b811461122c57600080fd5b50565b611238816111d0565b811461124357600080fd5b5056fea365627a7a7231582052ca992aa9ce953878c86da9a53fc2bb660ff16977591e55fa6763be4125c62e6c6578706572696d656e74616cf564736f6c63430005100040",
  "source": "// SPDX-License-Identifier: MIT\r\npragma solidity >=0.4.22 <0.9.0;\r\npragma experimental ABIEncoderV2;\r\n\r\nimport \"./Card.sol\";\r\n\r\n//import \"./Ash.sol\";\r\n\r\ncontract Slot {\r\n    Card public card;\r\n    address owner = msg.sender;\r\n    //装备的武功信息\r\n    struct Kungfu {\r\n        uint256 cardId; //卡片id 0代表天赋武功\r\n        uint256 fight; //战力\r\n    }\r\n    //单个卡槽信息\r\n    struct SlotInfo {\r\n        uint256 level; //等级\r\n        uint256 exp; //当前经验\r\n        uint256 slotFight; //卡槽战力\r\n        uint256 cardId; //卡片id\r\n        uint256 fight; //人物战力\r\n        uint256 buffer; //加成\r\n        Kungfu[] kungfus; //装备的武功列表\r\n        uint256 weaponId; //武器id\r\n        uint256 weaponFight; //武器战力\r\n        bool active; //激活状态\r\n    }\r\n    //用户卡槽信息\r\n    struct UserSlotInfo {\r\n        SlotInfo[] slots; //卡槽列表\r\n        uint256 count; //卡片总数\r\n        uint256 fight; //总战斗力\r\n    }\r\n    //卡槽经验加成配置\r\n    struct LevelConfig {\r\n        uint256 exp;\r\n        uint256 buffer;\r\n    }\r\n\r\n    event Upgrade();\r\n\r\n    mapping(address => UserSlotInfo) public ownerUserSlotInfos;\r\n\r\n    LevelConfig[] public levelConfigs;\r\n\r\n    //初始化\r\n    constructor() public {\r\n        levelConfigs.push(LevelConfig({exp: 0, buffer: 0}));\r\n        levelConfigs.push(LevelConfig({exp: 100, buffer: 10}));\r\n        levelConfigs.push(LevelConfig({exp: 300, buffer: 20}));\r\n        levelConfigs.push(LevelConfig({exp: 500, buffer: 30}));\r\n        levelConfigs.push(LevelConfig({exp: 700, buffer: 40}));\r\n        levelConfigs.push(LevelConfig({exp: 900, buffer: 50}));\r\n    }\r\n\r\n    function _addCard(\r\n        address _owner,\r\n        uint256 _cardTag,\r\n        uint256 _cardId\r\n    ) internal {\r\n        //用户卡槽信息\r\n        UserSlotInfo storage usi = ownerUserSlotInfos[_owner];\r\n        SlotInfo[] storage slots = usi.slots;\r\n        //获取放置卡片的卡槽\r\n        SlotInfo storage si = slots[_cardTag];\r\n        //获取卡片战斗力\r\n        uint256 cardFight = card.getFight(_cardId);\r\n        if (si.cardId == 0) {\r\n            si.cardId = _cardId;\r\n            si.fight = cardFight;\r\n            si.active = true;\r\n            usi.count++;\r\n        } else {\r\n            si.cardId = _cardId;\r\n            si.fight = cardFight;\r\n        }\r\n        //计算用户总战斗力\r\n        _calculateUserFight(_owner);\r\n    }\r\n\r\n    //装备武功\r\n    function _equipKungfu(\r\n        address _owner,\r\n        uint256 _cardTag,\r\n        uint256 _cardId,\r\n        uint8 _index\r\n    ) internal {\r\n        //用户卡槽信息\r\n        UserSlotInfo storage usi = ownerUserSlotInfos[_owner];\r\n        SlotInfo[] storage slots = usi.slots;\r\n        //获取放置卡片的卡槽\r\n        SlotInfo storage si = slots[_cardTag];\r\n        Kungfu[] storage kungfus = si.kungfus;\r\n        //获取武功卡槽\r\n        Kungfu storage kf = kungfus[_index];\r\n        //获取卡片战斗力\r\n        uint256 cardFight = card.getFight(_cardId);\r\n\r\n        kf.cardId = _cardId;\r\n        kf.fight = cardFight;\r\n    }\r\n\r\n    //装备武器\r\n    function _equipWeapon(\r\n        address _owner,\r\n        uint256 _cardTag,\r\n        uint256 _cardId\r\n    ) internal {\r\n        //用户卡槽信息\r\n        UserSlotInfo storage usi = ownerUserSlotInfos[_owner];\r\n        SlotInfo[] storage slots = usi.slots;\r\n        //获取放置卡片的卡槽\r\n        SlotInfo storage si = slots[_cardTag];\r\n        //获取卡片战斗力\r\n        uint256 cardFight = card.getFight(_cardId);\r\n        si.weaponId = _cardId;\r\n        si.weaponFight = cardFight;\r\n    }\r\n\r\n    //升级卡槽\r\n    function _upgrade(\r\n        address _owner,\r\n        uint256 _cardTag,\r\n        uint256 _exp\r\n    ) internal {\r\n        //用户卡槽信息\r\n        UserSlotInfo storage usi = ownerUserSlotInfos[_owner];\r\n        SlotInfo[] storage slots = usi.slots;\r\n        //获取放置卡片的卡槽\r\n        SlotInfo storage si = slots[_cardTag];\r\n\r\n        si.exp += _exp;\r\n        uint256 buffer = 0;\r\n        for (uint256 index = 0; index < levelConfigs.length; index++) {\r\n            if (levelConfigs[index].exp > si.exp) {\r\n                break;\r\n            }\r\n            buffer = levelConfigs[index].buffer;\r\n        }\r\n        if (buffer > si.buffer) {\r\n            si.buffer = buffer;\r\n        }\r\n    }\r\n\r\n    //重新计算用户总战斗力\r\n    function _calculateUserFight(address _owner) internal {\r\n        //用户卡槽信息\r\n        UserSlotInfo storage usi = ownerUserSlotInfos[_owner];\r\n        SlotInfo[] storage slots = usi.slots;\r\n\r\n        uint256 fight = 0;\r\n        for (uint256 i = 0; i < slots.length; i++) {\r\n            //计算卡槽基本战斗力\r\n            if (slots[i].active == true) {\r\n                //装备的武功加成战斗力\r\n                uint256 KungfuFight = 0;\r\n                for (uint256 j = 0; j < slots[i].kungfus.length; j++) {\r\n                    KungfuFight += slots[i].kungfus[j].fight;\r\n                }\r\n                //计算当前卡槽战斗力(未加成)\r\n                uint256 slotFight =\r\n                    slots[i].fight + slots[i].weaponFight + KungfuFight;\r\n                //加成\r\n                uint256 buffer = 100 + slots[i].buffer;\r\n\r\n                fight += (slotFight * buffer) / 100;\r\n            }\r\n            continue;\r\n        }\r\n        usi.fight = fight;\r\n    }\r\n\r\n    //放置卡片\r\n    function addCard(uint256 _cardTag, uint256 _cardId) public {\r\n        _addCard(owner, _cardTag, _cardId);\r\n    }\r\n\r\n    //装备武功\r\n    function equipKungfu(\r\n        uint256 _cardTag,\r\n        uint256 _cardId,\r\n        uint8 _index\r\n    ) public {\r\n        _equipKungfu(owner, _cardTag, _cardId, _index);\r\n    }\r\n\r\n    //升级卡槽\r\n    function upgrade(uint256 _cardTag, uint256 _exp) public {\r\n        _upgrade(owner, _cardTag, _exp);\r\n    }\r\n\r\n    //获取用户卡槽信息\r\n    function getUserSlotInfo()\r\n        external\r\n        view\r\n        returns (SlotInfo[] memory, uint256 fight)\r\n    {\r\n        UserSlotInfo storage usi = ownerUserSlotInfos[owner];\r\n\r\n        return (usi.slots, usi.fight);\r\n    }\r\n\r\n    //获取单个卡槽信息\r\n    function getSoltInfo(uint256 cardTag)\r\n        external\r\n        view\r\n        returns (SlotInfo memory)\r\n    {\r\n        return ownerUserSlotInfos[owner].slots[cardTag];\r\n    }\r\n}\r\n",
  "sourcePath": "D:/Sol/ntf/contracts/Slot.sol",
  "compiler": {
    "name": "solc",
    "version": "0.5.16+commit.9c3226ce.Emscripten.clang"
  },
  "schemaVersion": "3.4.1",
  "updatedAt": "2021-05-31T10:56:48.585Z",
  "devdoc": {
    "methods": {}
  },
  "userdoc": {
    "methods": {}
  }
}