{
  "contractName": "Util",
  "abi": [
    {
      "constant": true,
      "inputs": [],
      "name": "BASE64_CHARS",
      "outputs": [
        {
          "internalType": "bytes",
          "name": "",
          "type": "bytes"
        }
      ],
      "payable": false,
      "stateMutability": "view",
      "type": "function"
    },
    {
      "constant": true,
      "inputs": [],
      "name": "RARITY_BLUE",
      "outputs": [
        {
          "internalType": "uint256",
          "name": "",
          "type": "uint256"
        }
      ],
      "payable": false,
      "stateMutability": "view",
      "type": "function"
    },
    {
      "constant": true,
      "inputs": [],
      "name": "RARITY_GOLD",
      "outputs": [
        {
          "internalType": "uint256",
          "name": "",
          "type": "uint256"
        }
      ],
      "payable": false,
      "stateMutability": "view",
      "type": "function"
    },
    {
      "constant": true,
      "inputs": [],
      "name": "RARITY_GREEN",
      "outputs": [
        {
          "internalType": "uint256",
          "name": "",
          "type": "uint256"
        }
      ],
      "payable": false,
      "stateMutability": "view",
      "type": "function"
    },
    {
      "constant": true,
      "inputs": [],
      "name": "RARITY_ORANGE",
      "outputs": [
        {
          "internalType": "uint256",
          "name": "",
          "type": "uint256"
        }
      ],
      "payable": false,
      "stateMutability": "view",
      "type": "function"
    },
    {
      "constant": true,
      "inputs": [],
      "name": "RARITY_PURPLE",
      "outputs": [
        {
          "internalType": "uint256",
          "name": "",
          "type": "uint256"
        }
      ],
      "payable": false,
      "stateMutability": "view",
      "type": "function"
    },
    {
      "constant": true,
      "inputs": [],
      "name": "SDENO",
      "outputs": [
        {
          "internalType": "int256",
          "name": "",
          "type": "int256"
        }
      ],
      "payable": false,
      "stateMutability": "view",
      "type": "function"
    },
    {
      "constant": true,
      "inputs": [],
      "name": "UDENO",
      "outputs": [
        {
          "internalType": "uint256",
          "name": "",
          "type": "uint256"
        }
      ],
      "payable": false,
      "stateMutability": "view",
      "type": "function"
    }
  ],
  "bytecode": "0x6102a8610026600b82828239805160001a60731461001957fe5b30600052607381538281f3fe73000000000000000000000000000000000000000030146080604052600436106100925760003560e01c80638890b802116100655780638890b8021461017457806396434bd514610192578063cffee365146101b0578063fd57b50a146101ce57610092565b806305190b051461009757806320788472146100b55780636593189a146100d35780636de4b85c14610156575b600080fd5b61009f6101ec565b6040518082815260200191505060405180910390f35b6100bd6101f1565b6040518082815260200191505060405180910390f35b6100db6101f6565b6040518080602001828103825283818151815260200191508051906020019080838360005b8381101561011b578082015181840152602081019050610100565b50505050905090810190601f1680156101485780820380516001836020036101000a031916815260200191505b509250505060405180910390f35b61015e610212565b6040518082815260200191505060405180910390f35b61017c610217565b6040518082815260200191505060405180910390f35b61019a610220565b6040518082815260200191505060405180910390f35b6101b8610225565b6040518082815260200191505060405180910390f35b6101d661022a565b6040518082815260200191505060405180910390f35b600281565b600181565b6040518060600160405280604081526020016102346040913981565b600381565b6402540be40081565b600481565b600081565b6402540be4008156fe4142434445464748494a4b4c4d4e4f505152535455565758595a6162636465666768696a6b6c6d6e6f707172737475767778797a303132333435363738392d5fa265627a7a723158204964c7f31e020a600756643e21422c30893e30ec5b8a91981bdbce0c11e50fec64736f6c63430005100032",
  "source": "pragma solidity >=0.4.22 <0.9.0;\r\n\r\n// SPDX-License-Identifier: SimPL-2.0\r\n\r\nlibrary Util {\r\n    bytes4 internal constant ERC721_RECEIVER_RETURN = 0x150b7a02;\r\n    bytes4 internal constant ERC721_RECEIVER_EX_RETURN = 0x0f7b88e3;\r\n\r\n    uint256 public constant UDENO = 10**10;\r\n    int256 public constant SDENO = 10**10;\r\n\r\n    uint256 public constant RARITY_GREEN = 0;\r\n    uint256 public constant RARITY_BLUE = 1;\r\n    uint256 public constant RARITY_PURPLE = 2;\r\n    uint256 public constant RARITY_ORANGE = 3;\r\n    uint256 public constant RARITY_GOLD = 4;\r\n\r\n    bytes public constant BASE64_CHARS =\r\n        \"ABCDEFGHIJKLMNOPQRSTUVWXYZabcdefghijklmnopqrstuvwxyz0123456789-_\";\r\n}\r\n",
  "sourcePath": "D:\\Sol\\ntf\\contracts\\lib\\Util.sol",
  "compiler": {
    "name": "solc",
    "version": "0.5.16+commit.9c3226ce.Emscripten.clang"
  },
  "schemaVersion": "3.4.1",
  "updatedAt": "2021-05-31T10:58:24.208Z",
  "devdoc": {
    "methods": {}
  },
  "userdoc": {
    "methods": {}
  }
}