{
  "contractName": "World",
  "abi": [
    {
      "constant": true,
      "inputs": [],
      "name": "getWorldTotalFighting",
      "outputs": [
        {
          "internalType": "uint256",
          "name": "",
          "type": "uint256"
        }
      ],
      "payable": false,
      "stateMutability": "view",
      "type": "function"
    },
    {
      "constant": true,
      "inputs": [],
      "name": "getWorldCardTotalCount",
      "outputs": [
        {
          "internalType": "uint256",
          "name": "",
          "type": "uint256"
        }
      ],
      "payable": false,
      "stateMutability": "view",
      "type": "function"
    }
  ],
  "bytecode": "0x6080604052600080556000600155600060025534801561001e57600080fd5b5060b78061002d6000396000f3fe6080604052348015600f57600080fd5b506004361060325760003560e01c80635927873e14603757806372362278146053575b600080fd5b603d606f565b6040518082815260200191505060405180910390f35b60596079565b6040518082815260200191505060405180910390f35b6000600154905090565b6000805490509056fea265627a7a723158209294a4d677cc7f10d7d7af49db3bcdc4d6c4fd7d29fdc6be82018b593371613d64736f6c63430005100032",
  "source": "// SPDX-License-Identifier: MIT\r\npragma solidity >=0.4.22 <0.9.0;\r\n\r\ncontract World {\r\n    uint256 worldTotalFighting = 0; //全服总战斗力\r\n    uint256 worldCardTotalCount = 0; //全服卡牌总数量\r\n    uint256 totalVolume = 0;\r\n\r\n    // 获取全部总战斗力\r\n    function getWorldTotalFighting() public view returns (uint256) {\r\n        return worldTotalFighting;\r\n    }\r\n\r\n    //获取全部卡牌总数量\r\n    function getWorldCardTotalCount() public view returns (uint256) {\r\n        return worldCardTotalCount;\r\n    }\r\n}\r\n",
  "sourcePath": "D:/Sol/ntf/contracts/World.sol",
  "compiler": {
    "name": "solc",
    "version": "0.5.16+commit.9c3226ce.Emscripten.clang"
  },
  "schemaVersion": "3.4.1",
  "updatedAt": "2021-05-31T10:56:48.591Z",
  "devdoc": {
    "methods": {}
  },
  "userdoc": {
    "methods": {}
  }
}